{
	"data": {
		"bytecode": {
			"linkReferences": {},
			"object": "608060405234801561001057600080fd5b5061026f806100206000396000f3fe608060405234801561001057600080fd5b506004361061002b5760003560e01c80633a8fb26f14610030575b600080fd5b6100f561003e36600461015d565b6040805173ffffffffffffffffffffffffffffffffffffffff9490941660208086019190915284820195909552805180850382018152606080860183528151918701919091208351938701939093207fff00000000000000000000000000000000000000000000000000000000000000608087015293901b6bffffffffffffffffffffffff19166081850152609584019190915260b5808401929092528051808403909201825260d5909201909152805191012090565b60405173ffffffffffffffffffffffffffffffffffffffff909116815260200160405180910390f35b803573ffffffffffffffffffffffffffffffffffffffff8116811461014257600080fd5b919050565b634e487b7160e01b600052604160045260246000fd5b6000806000806080858703121561017357600080fd5b843593506101836020860161011e565b92506101916040860161011e565b9150606085013567ffffffffffffffff808211156101ae57600080fd5b818701915087601f8301126101c257600080fd5b8135818111156101d4576101d4610147565b604051601f8201601f19908116603f011681019083821181831017156101fc576101fc610147565b816040528281528a602084870101111561021557600080fd5b8260208601602083013760006020848301015280955050505050509295919450925056fea26469706673582212208e085eec2bc1f5729bc932866a830d99ea9c77c6164c5e95a1cd2e83ff1cb44a64736f6c634300080c0033",
			"opcodes": "PUSH1 0x80 PUSH1 0x40 MSTORE CALLVALUE DUP1 ISZERO PUSH2 0x10 JUMPI PUSH1 0x0 DUP1 REVERT JUMPDEST POP PUSH2 0x26F DUP1 PUSH2 0x20 PUSH1 0x0 CODECOPY PUSH1 0x0 RETURN INVALID PUSH1 0x80 PUSH1 0x40 MSTORE CALLVALUE DUP1 ISZERO PUSH2 0x10 JUMPI PUSH1 0x0 DUP1 REVERT JUMPDEST POP PUSH1 0x4 CALLDATASIZE LT PUSH2 0x2B JUMPI PUSH1 0x0 CALLDATALOAD PUSH1 0xE0 SHR DUP1 PUSH4 0x3A8FB26F EQ PUSH2 0x30 JUMPI JUMPDEST PUSH1 0x0 DUP1 REVERT JUMPDEST PUSH2 0xF5 PUSH2 0x3E CALLDATASIZE PUSH1 0x4 PUSH2 0x15D JUMP JUMPDEST PUSH1 0x40 DUP1 MLOAD PUSH20 0xFFFFFFFFFFFFFFFFFFFFFFFFFFFFFFFFFFFFFFFF SWAP5 SWAP1 SWAP5 AND PUSH1 0x20 DUP1 DUP7 ADD SWAP2 SWAP1 SWAP2 MSTORE DUP5 DUP3 ADD SWAP6 SWAP1 SWAP6 MSTORE DUP1 MLOAD DUP1 DUP6 SUB DUP3 ADD DUP2 MSTORE PUSH1 0x60 DUP1 DUP7 ADD DUP4 MSTORE DUP2 MLOAD SWAP2 DUP8 ADD SWAP2 SWAP1 SWAP2 KECCAK256 DUP4 MLOAD SWAP4 DUP8 ADD SWAP4 SWAP1 SWAP4 KECCAK256 PUSH32 0xFF00000000000000000000000000000000000000000000000000000000000000 PUSH1 0x80 DUP8 ADD MSTORE SWAP4 SWAP1 SHL PUSH12 0xFFFFFFFFFFFFFFFFFFFFFFFF NOT AND PUSH1 0x81 DUP6 ADD MSTORE PUSH1 0x95 DUP5 ADD SWAP2 SWAP1 SWAP2 MSTORE PUSH1 0xB5 DUP1 DUP5 ADD SWAP3 SWAP1 SWAP3 MSTORE DUP1 MLOAD DUP1 DUP5 SUB SWAP1 SWAP3 ADD DUP3 MSTORE PUSH1 0xD5 SWAP1 SWAP3 ADD SWAP1 SWAP2 MSTORE DUP1 MLOAD SWAP2 ADD KECCAK256 SWAP1 JUMP JUMPDEST PUSH1 0x40 MLOAD PUSH20 0xFFFFFFFFFFFFFFFFFFFFFFFFFFFFFFFFFFFFFFFF SWAP1 SWAP2 AND DUP2 MSTORE PUSH1 0x20 ADD PUSH1 0x40 MLOAD DUP1 SWAP2 SUB SWAP1 RETURN JUMPDEST DUP1 CALLDATALOAD PUSH20 0xFFFFFFFFFFFFFFFFFFFFFFFFFFFFFFFFFFFFFFFF DUP2 AND DUP2 EQ PUSH2 0x142 JUMPI PUSH1 0x0 DUP1 REVERT JUMPDEST SWAP2 SWAP1 POP JUMP JUMPDEST PUSH4 0x4E487B71 PUSH1 0xE0 SHL PUSH1 0x0 MSTORE PUSH1 0x41 PUSH1 0x4 MSTORE PUSH1 0x24 PUSH1 0x0 REVERT JUMPDEST PUSH1 0x0 DUP1 PUSH1 0x0 DUP1 PUSH1 0x80 DUP6 DUP8 SUB SLT ISZERO PUSH2 0x173 JUMPI PUSH1 0x0 DUP1 REVERT JUMPDEST DUP5 CALLDATALOAD SWAP4 POP PUSH2 0x183 PUSH1 0x20 DUP7 ADD PUSH2 0x11E JUMP JUMPDEST SWAP3 POP PUSH2 0x191 PUSH1 0x40 DUP7 ADD PUSH2 0x11E JUMP JUMPDEST SWAP2 POP PUSH1 0x60 DUP6 ADD CALLDATALOAD PUSH8 0xFFFFFFFFFFFFFFFF DUP1 DUP3 GT ISZERO PUSH2 0x1AE JUMPI PUSH1 0x0 DUP1 REVERT JUMPDEST DUP2 DUP8 ADD SWAP2 POP DUP8 PUSH1 0x1F DUP4 ADD SLT PUSH2 0x1C2 JUMPI PUSH1 0x0 DUP1 REVERT JUMPDEST DUP2 CALLDATALOAD DUP2 DUP2 GT ISZERO PUSH2 0x1D4 JUMPI PUSH2 0x1D4 PUSH2 0x147 JUMP JUMPDEST PUSH1 0x40 MLOAD PUSH1 0x1F DUP3 ADD PUSH1 0x1F NOT SWAP1 DUP2 AND PUSH1 0x3F ADD AND DUP2 ADD SWAP1 DUP4 DUP3 GT DUP2 DUP4 LT OR ISZERO PUSH2 0x1FC JUMPI PUSH2 0x1FC PUSH2 0x147 JUMP JUMPDEST DUP2 PUSH1 0x40 MSTORE DUP3 DUP2 MSTORE DUP11 PUSH1 0x20 DUP5 DUP8 ADD ADD GT ISZERO PUSH2 0x215 JUMPI PUSH1 0x0 DUP1 REVERT JUMPDEST DUP3 PUSH1 0x20 DUP7 ADD PUSH1 0x20 DUP4 ADD CALLDATACOPY PUSH1 0x0 PUSH1 0x20 DUP5 DUP4 ADD ADD MSTORE DUP1 SWAP6 POP POP POP POP POP POP SWAP3 SWAP6 SWAP2 SWAP5 POP SWAP3 POP JUMP INVALID LOG2 PUSH5 0x6970667358 0x22 SLT KECCAK256 DUP15 ADDMOD 0x5E 0xEC 0x2B 0xC1 CREATE2 PUSH19 0x9BC932866A830D99EA9C77C6164C5E95A1CD2E DUP4 SELFDESTRUCT SHR 0xB4 0x4A PUSH5 0x736F6C6343 STOP ADDMOD 0xC STOP CALLER "
		},
		"gasEstimates": {
			"creation": {
				"codeDepositCost": "124600",
				"executionCost": "171",
				"totalCost": "124771"
			},
			"external": {
				"computeAddress(bytes32,address,address,bytes)": "infinite"
			}
		},
		"methodIdentifiers": {
			"computeAddress(bytes32,address,address,bytes)": "3a8fb26f"
		}
	},
	"abi": [
		{
			"inputs": [
				{
					"internalType": "bytes32",
					"name": "seed",
					"type": "bytes32"
				},
				{
					"internalType": "address",
					"name": "deployer",
					"type": "address"
				},
				{
					"internalType": "address",
					"name": "factory",
					"type": "address"
				},
				{
					"internalType": "bytes",
					"name": "bytecode",
					"type": "bytes"
				}
			],
			"name": "computeAddress",
			"outputs": [
				{
					"internalType": "address",
					"name": "",
					"type": "address"
				}
			],
			"stateMutability": "pure",
			"type": "function"
		}
	]
}